:020000040800F2
:10C00000C00A002039F5000825F5000827F50008CA
:10C0100029F500082BF500082DF5000800000000A8
:10C020000000000000000000000000002FF50008E4
:10C0300031F500080000000033F5000835F5000870
:10C0400079F500087DF5000881F5000885F5000800
:10C0500089F500088DF5000891F5000895F50008B0
:10C0600099F500089DF50008A1F50008A5F5000860
:10C07000A9F50008ADF50008B1F50008B5F5000810
:10C08000B9F50008BDF50008C1F50008C5F50008C0
:10C09000C9F50008CDF50008D1F50008D5F5000870
:10C0A000D9F50008DDF50008E1F50008E5F5000820
:10C0B000E9F50008EDF50008F1F50008F5F50008D0
:10C0C000F9F50008FDF5000801F6000805F600087E
:10C0D00009F600080DF6000811F6000815F600082C
:10C0E00019F600081DF6000821F6000825F60008DC
:10C0F00029F600082DF6000831F6000835F600088C
:10C1000039F600083DF6000841F6000845F600083B
:10C1100049F600084DF6000851F6000855F60008EB
:10C1200059F600085DF6000861F6000865F600089B
:10C1300069F600086DF6000871F6000875F600084B
:10C1400079F600087DF6000881F6000885F60008FB
:10C1500089F600088DF6000891F6000895F60008AB
:10C1600099F600089DF60008A1F60008A5F600085B
:10C17000A9F60008ADF60008B1F60008B5F600080B
:10C18000B9F60008BDF6000800000000000000003D
:10C19000000000000000000000000000000000009F
:10C1A000000000000000000000000000000000008F
:10C1B00000000000000000000000800180018001FC
:10C1C0008001800180018001800180018001800167
:10C1D000800180010000000080018001000000005B
:10C1E000000000000000000000000000CC00CC00B7
:10C1F000CC00CC00CC00CC0000000000000000000F
:10C20000000000000000000000000000000000002E
:10C21000000000000000000000000000000000001E
:10C2200000000000600C600C600C30063006FE1F41
:10C23000FE1F300638071803FE1FFE1F18031803E1
:10C240008C018C018C01000000008000E003F80FDD
:10C250009C0E8C1C8C188C009800F801E007800E56
:10C26000801C8C188C189C18B80CF00FE003800010
:10C2700080000000000000000000000000000E1818
:10C280001B0C110C11061106110311039B018E01E9
:10C29000C038C06C60446044304430441844186C6A
:10C2A0000C380000000000000000E001F003380737
:10C2B000180618063003F001F000F8009C310E3328
:10C2C000061E061C061C063FFC73F0210000000041
:10C2D0000000000000000000000000000C000C0046
:10C2E0000C000C000C000C0000000000000000001E
:10C2F000000000000000000000000000000000003E
:10C3000000000000000000000000000200038001A7
:10C31000C000C0006000600030003000300030001D
:10C32000300030003000300060006000C000C0000D
:10C330008001000300020000000020006000C00037
:10C3400080018001000300030006000600060006CD
:10C3500000060006000600060003000380018001BD
:10C36000C00060002000000000000000000000008D
:10C3700000000000C000C000D806F807E00130034C
:10C38000380700000000000000000000000000006E
:10C39000000000000000000000000000000000009D
:10C3A0000000000080018001800180018001FC3FCD
:10C3B000FC3F8001800180018001800100000000BD
:10C3C000000000000000000000000000000000006D
:10C3D000000000000000000000000000000000005D
:10C3E000000000000000000000008001800100014A
:10C3F00000018000000000000000000000000000BC
:10C40000000000000000000000000000000000002C
:10C41000E007E0070000000000000000000000004E
:10C42000000000000000000000000000000000000C
:10C4300000000000000000000000000000000000FC
:10C4400000000000000000000000C000C00000006C
:10C4500000000000000000000000000C000C0006BE
:10C460000006000600030003000380038001800132
:10C470008001C000C000C00060006000000000003B
:10C4800000000000000000000000E003F007380E8C
:10C49000180C0C180C180C180C180C180C180C187C
:10C4A0000C180C18180C380EF007E0030000000000
:10C4B0000000000000000000000000018001C00139
:10C4C000F0019801880180018001800180018001D4
:10C4D0008001800180018001800180010000000056
:10C4E00000000000000000000000E003F80F180C3E
:10C4F0000C180C1800180018000C0006000380012E
:10C50000C000600030001800FC1FFC1F000000008D
:10C5100000000000000000000000E001F807180E15
:10C520000C0C0C0C000C0006C003C007000C00181B
:10C5300000180C180C18180CF807E0030000000095
:10C5400000000000000000000000000C000E000FC2
:10C55000000F800DC00C600C600C300C180C0C0C23
:10C56000FC3FFC3F000C000C000C000C0000000025
:10C5700000000000000000000000F80FF80F180095
:10C5800018000C00EC03FC071C0E001C001800181F
:10C5900000180C181C0C180EF807E003000000002F
:10C5A00000000000000000000000C007F00F381C71
:10C5B000181818000C00CC03EC0F3C0E1C1C0C18B7
:10C5C0000C180C18181C380EF007E00300000000CF
:10C5D00000000000000000000000FC1FFC1F000C19
:10C5E00000060006000380038001C001C000E000D7
:10C5F000600060007000300030003000000000007B
:10C6000000000000000000000000E003F007380E0A
:10C61000180C180C180C3806F007F007180C0C183A
:10C620000C180C180C18380CF80FE0030000000070
:10C6300000000000000000000000E003F007380EDA
:10C640001C0C0C180C180C181C1C381EF81BE019BC
:10C650000018000C000C1C0EF807F0010000000090
:10C6600000000000000000000000000000000000CA
:10C6700000000000800180010000000000000000B8
:10C6800000000000000000008001800100000000A8
:10C69000000000000000000000000000000000009A
:10C6A0000000000080018001000000000000000088
:10C6B0000000000000000000800180010001000176
:10C6C00080000000000000000000000000000000EA
:10C6D00000000000000000000010001C800FE003BC
:10C6E000F8001800F800E003800F001C00100000A4
:10C6F000000000000000000000000000000000003A
:10C700000000000000000000F81F00000000000012
:10C71000F81F000000000000000000000000000002
:10C720000000000000000000000000000000000009
:10C73000000000000000000008003800F001C00701
:10C74000001F0018001FC007F0013800080000009B
:10C7500000000000000000000000E003F80F180CCB
:10C760000C180C180018000C000600038001C00013
:10C77000C000C00000000000C000C00000000000B9
:10C78000000000000000000000000000E007181892
:10C790000420C229224A11440944094409440922B7
:10C7A0001113E20C024004201818E00700000000FA
:10C7B0000000000000000000000080038003C006AD
:10C7C000C006C006600C600C301830183018F83FF6
:10C7D000F83F1C700C600C6006C006C00000000032
:10C7E00000000000000000000000FC03FC0F0C0C27
:10C7F0000C180C180C180C0CFC07FC0F0C180C3047
:10C800000C300C300C300C18FC1FFC070000000032
:10C8100000000000000000000000C007F01F3838D2
:10C820001C300C70066006000600060006000600BC
:10C83000060006600C701C30F01FE00700000000CE
:10C8400000000000000000000000FE03FE0F060EC6
:10C850000618061806300630063006300630063058
:10C86000063006180618060EFE0FFE030000000034
:10C8700000000000000000000000FC3FFC3F0C0036
:10C880000C000C000C000C00FC1FFC1F0C000C002A
:10C890000C000C000C000C00FC3FFC3F00000000F2
:10C8A00000000000000000000000F83FF83F180002
:10C8B0001800180018001800F81FF81F18001800BA
:10C8C00018001800180018001800180000000000D8
:10C8D00000000000000000000000E00FF83F3C787E
:10C8E0000E6006E007C00300030003FE03FE03C062
:10C8F00007C006C00EC03CF0F83FE00F000000008B
:10C90000000000000000000000000C300C300C3073
:10C910000C300C300C300C30FC3FFC3F0C300C3039
:10C920000C300C300C300C300C300C30000000009F
:10C930000000000000000000000080018001800174
:10C9400080018001800180018001800180018001DF
:10C9500080018001800180018001800100000000D1
:10C9600000000000000000000000000600060006B5
:10C970000006000600060006000600060006000687
:10C980000006180618063807F003E0010000000052
:10C990000000000000000000000006300618060C31
:10C9A000060606038601C60066007600DE008E01DC
:10C9B00006030606060C0618063006600000000096
:10C9C000000000000000000000001800180018001F
:10C9D0001800180018001800180018001800180097
:10C9E0001800180018001800F81FF81F00000000B9
:10C9F000000000000000000000000EE01EF01EF02D
:10CA00001EF036D836D836D836D866CC66CC66CC4A
:10CA1000C6C6C6C6C6C6C6C686C386C30000000054
:10CA2000000000000000000000000C301C303C3012
:10CA30003C306C306C30CC30CC308C310C330C331F
:10CA40000C360C360C3C0C3C0C380C300000000052
:10CA500000000000000000000000E007F81F1C3884
:10CA60000E70066003C003C003C003C003C003C050
:10CA700003C006600E701C38F81FE00700000000BD
:10CA800000000000000000000000FC0FFC1F0C383C
:10CA90000C300C300C300C300C18FC1FFC070C0058
:10CAA0000C000C000C000C000C000C00000000003E
:10CAB00000000000000000000000E007F81F1C3824
:10CAC0000E70066003E003C003C003C003C003C0D0
:10CAD00007E006630E3F1C3CF83FE0F700C0000093
:10CAE00000000000000000000000FE0FFE1F0638DE
:10CAF0000630063006300638FE1FFE07060306061F
:10CB0000060C061806180630063006600000000005
:10CB100000000000000000000000E003F80F1C0C03
:10CB20000C180C180C001C00F803E00F001E003855
:10CB3000063006300E301C1CF80FE0070000000025
:10CB400000000000000000000000FE7FFE7F80016A
:10CB500080018001800180018001800180018001CD
:10CB600080018001800180018001800100000000BF
:10CB7000000000000000000000000C300C300C3001
:10CB80000C300C300C300C300C300C300C300C30C5
:10CB90000C300C300C301818F81FE00700000000B3
:10CBA00000000000000000000000036006300630B6
:10CBB00006300C180C180C18180C180C380E30060F
:10CBC0003006700760036003C001C0010000000070
:10CBD000000000000000000000000360C361C361AA
:10CBE000C3616633663366336633663366336C1B04
:10CBF0006C1B6C1B2C1A3C1E380E380E00000000FB
:10CC0000000000000000000000000FE00C70183071
:10CC10003018700C600EC00780038003C003E0066C
:10CC2000700C301C18180C300E6007E0000000007B
:10CC30000000000000000000000003C006600C308F
:10CC40001C383818300C6006E007C00380018001F2
:10CC500080018001800180018001800100000000CE
:10CC600000000000000000000000FC7FFC7F00606E
:10CC700000300018000C000600038001C0006000B6
:10CC8000300018000C000600FE7FFE7F0000000050
:10CC900000000000000000000000E003E00360006E
:10CCA0006000600060006000600060006000600084
:10CCB0006000600060006000600060006000600074
:10CCC0006000E003E003000000003000300060007E
:10CCD00060006000C000C000C000C0018001800191
:10CCE00080010003000300030006000600000000AE
:10CCF00000000000000000000000E003E00300036B
:10CD0000000300030003000300030003000300030B
:10CD100000030003000300030003000300030003FB
:10CD20000003E003E003000000000000C001C001B8
:10CD300060036003600330063006180C180C000016
:10CD400000000000000000000000000000000000E3
:10CD500000000000000000000000000000000000D3
:10CD600000000000000000000000000000000000C3
:10CD700000000000000000000000FFFFFFFF0000B7
:10CD8000000000000000000000000C000C000C007F
:10CD90000C000C000C00000000000000000000006F
:10CDA0000000000000000000000000000000000083
:10CDB0000000000000000000000000000000000073
:10CDC00000000000F003F8071C0C0C0C000FF00F23
:10CDD000F80C0C0C0C0C1C0FF80FF01800000000E5
:10CDE00000000000000000000000180018001800FB
:10CDF00018001800D803F80F380C1818181818184D
:10CE0000181818181818380CF80FD803000000006C
:10CE10000000000000000000000000000000000012
:10CE200000000000C003F007300E180C18001800B6
:10CE300018001800180C300EF007C00300000000A6
:10CE4000000000000000000000000018001800189A
:10CE500000180018C01BF01F301C181818181818DC
:10CE6000181818181818301CF01FC01B00000000FC
:10CE700000000000000000000000000000000000B2
:10CE800000000000C003F00F300C1818F81FF81F46
:10CE9000180018003818301CF00FC0070000000000
:10CEA00000000000000000000000800FC00FC00064
:10CEB000C000C000F007F007C000C000C000C00004
:10CEC000C000C000C000C000C000C00000000000E2
:10CED0000000000000000000000000000000000052
:10CEE00000000000E00DF80F180E0C0C0C0C0C0CE0
:10CEF0000C0C0C0C0C0C180EF80FE00D000C0C0CAC
:10CF00001C06F807F00100000000180018001800C7
:10CF100018001800D807F80F381C18181818181817
:10CF200018181818181818181818181800000000E1
:10CF300000000000000000000000C000C000000071
:10CF400000000000C000C000C000C000C000C00061
:10CF5000C000C000C000C000C000C0000000000051
:10CF600000000000000000000000C000C000000041
:10CF700000000000C000C000C000C000C000C00031
:10CF8000C000C000C000C000C000C000C000C000A1
:10CF9000C000F8007800000000000C000C000C003D
:10CFA0000C000C000C0C0C060C038C01CC006C006B
:10CFB000FC009C018C030C030C060C0C0000000010
:10CFC00000000000000000000000C000C000C00021
:10CFD000C000C000C000C000C000C000C000C00051
:10CFE000C000C000C000C000C000C00000000000C1
:10CFF0000000000000000000000000000000000031
:10D00000000000007C3CFF7EC7E383C183C183C175
:10D0100083C183C183C183C183C183C10000000078
:10D020000000000000000000000000000000000000
:10D03000000000009807F80F381C18181818181866
:10D0400018181818181818181818181800000000C0
:10D0500000000000000000000000000000000000D0
:10D0600000000000C003F00F300C18181818181832
:10D07000181818181818300CF00FC0030000000022
:10D0800000000000000000000000000000000000A0
:10D0900000000000D803F80F380C181818181818DA
:10D0A000181818181818380CF80FD803180018009A
:10D0B0001800180018000000000000000000000028
:10D0C00000000000C01BF01F301C1818181818189A
:10D0D000181818181818301CF01FC01B001800185A
:10D0E00000180018001800000000000000000000F8
:10D0F00000000000B007F003700030003000300086
:10D1000030003000300030003000300000000000FF
:10D11000000000000000000000000000000000000F
:10D1200000000000E003F003380E180C3800F00394
:10D13000C007000C180C380EF007E00300000000D8
:10D140000000000000000000000000008000C0009F
:10D15000C000C000F007F007C000C000C000C00061
:10D16000C000C000C000C000C00780070000000071
:10D1700000000000000000000000000000000000AF
:10D18000000000001818181818181818181818187F
:10D19000181818181818381CF01FE01900000000A3
:10D1A000000000000000000000000000000000007F
:10D1B000000000000C18180C180C180C3006300673
:10D1C0003006600360036003C001C001000000007E
:10D1D000000000000000000000000000000000004F
:10D1E00000000000C141C141C361636363636363C5
:10D1F0003636363636361C1C1C1C1C1C0000000043
:10D20000000000000000000000000000000000001E
:10D21000000000001C38381C300C600660036003FE
:10D22000600360036006300C381C1C3800000000EE
:10D2300000000000000000000000000000000000EE
:10D24000000000001830301830187018600C600CA6
:10D25000E00CC006C00680038003800380018001CB
:10D26000C001F0007000000000000000000000009D
:10D2700000000000FC1FFC1F000C000600038001E2
:10D28000C000600030001800FC1FFC1F0000000000
:10D290000000000000000000000000038001C0004A
:10D2A000C000C000C000C000C000600060003000CE
:10D2B00060004000C000C000C000C000C000C0004E
:10D2C0008001000300000000000080018001800157
:10D2D0008001800180018001800180018001800146
:10D2E0008001800180018001800180018001800136
:10D2F000800180018001000000006000C000C001CA
:10D30000800180018001800180010003000300068C
:10D310000003000180018001800180018001800103
:10D32000C0006000000000000000000000000000DD
:10D330000000000000000000F010F81F080F0000BF
:10D3400000000000000000000000000000000000DD
:10D3500000000000000000000000000000000000CD
:10D3600000000000000000000000000000000000BD
:10D3700000000020002000200020002000200020CD
:10D38000000000200000000000000050005000508D
:10D39000000000000000000000000000000000008D
:10D3A0000000000900090012007F0012007F001237
:10D3B0000024002400000000001000380054005039
:10D3C00000500038001400540054003800100000D1
:10D3D0000000803000490049004AC0322005200981
:10D3E0002009C010000000000000000C0012001214
:10D3F00000140018002500230023801D00000000F9
:10D40000000000400040004000000000000000005C
:10D4100000000000000000000000000800100010E4
:10D42000002000200020002000200020001000101C
:10D43000000000400020002000100010001000102C
:10D4400000100010002000200000002000700020CC
:10D45000005000000000000000000000000000007C
:10D4600000000000000000080008007F000800081D
:10D4700000000000000000000000000000000000AC
:10D48000000000000000000000000020002000401C
:10D49000000000000000000000000000007000001C
:10D4A000000000000000000000000000000000007C
:10D4B000000000000000000000000020000000004C
:10D4C00000000010001000100020002000200020AC
:10D4D0000040004000000000000000100028004450
:10D4E00000440044004400440028001000000000F4
:10D4F000000000100030005000100010001000105C
:10D50000001000100000000000000030004800443F
:10D5100000040008001000200040007C0000000013
:10D52000000000300048000400080010000800441B
:10D53000004800300000000000000008001800183B
:10D54000002800280048007C0008000800000000B7
:10D550000000003C0020004000700048000400442F
:10D5600000480030000000000000001800240040C7
:10D570000050006800440044002800100000000033
:10D580000000007C000400080010001000100020C3
:10D5900000200020000000000000001000280044CF
:10D5A000002800100028004400280010000000009F
:10D5B00000000010002800440044002C0014000467
:10D5C00000480030000000000000000000000020C3
:10D5D000000000000000000000000020000000002B
:10D5E000000000000000002000000000000000001B
:10D5F000000000200020004000000000000400089F
:10D60000003000400030000800040000000000006E
:10D61000000000000000007C00000000007C000012
:10D62000000000000000000000000000004000209A
:10D630000018000400180020004000000000000056
:10D6400000000038006400440004000800100010CE
:10D6500000000010000000000000800F4010A02E0D
:10D66000A0512051205120512053C04D2020401066
:10D67000000000080014001400140022003E0022E4
:10D6800000410041000000000000003C0022002298
:10D690000022003C002200220022003C000000008A
:10D6A0000000000E001100210020002000200021B9
:10D6B0000011000E000000000000003C00220021CC
:10D6C00000210021002100210022003C0000000078
:10D6D0000000003E002000200020003E002000202E
:10D6E0000020003E000000000000003E002000205E
:10D6F0000020003C0020002000200020000000004E
:10D700000000000E00110021002000270021002150
:10D710000011000E00000000000000210021002187
:10D720000021003F00210021002100210000000015
:10D730000000002000200020002000200020002009
:10D740000020002000000000000000080008000881
:10D7500000080008000800480048003000000000F1
:10D76000000000220024002800280038002800249F
:10D770000024002200000000000000200020002003
:10D7800000200020002000200020003E00000000BB
:10D7900000008020803180318031802A802A802AD8
:10D7A000802A8024000000000000002100310031A8
:10D7B000002900290025002300230021000000008B
:10D7C0000000000C00120021002100210021002196
:10D7D0000012000C000000000000003C00220022AB
:10D7E0000022003C0020002000200020000000005B
:10D7F0000000000C00120021002100210021002166
:10D800000016000D000100000000003E0021002174
:10D810000021003E002400220021802000000000A2
:10D820000000001C002200220020001C0002002238
:10D830000022001C000000000000003E000800085C
:10D8400000080008000800080008000800000000A8
:10D8500000000021002100210021002100210021E1
:10D860000012000C000000000000004100410022F6
:10D870000022002200140014001400080000000020
:10D8800000004044404A402A802A802A802A802A78
:10D89000802A001100000000000000410022001456
:10D8A00000140008001400140022004100000000D1
:10D8B00000000041002200220014000800080008B7
:10D8C00000080008000000000000007E00020004C4
:10D8D00000080010001000200040007E0000000042
:10D8E0000000003000200020002000200020002048
:10D8F0000020002000200020000000400040002008
:10D900000020002000200020001000100000000077
:10D9100000000060002000200020002000200020E7
:10D920000020002000200020000000100028002817
:10D93000002800440000000000000000000000007B
:10D9400000000000000000000000000000000000D7
:10D95000000000000000007E0040002000000000E9
:10D9600000000000000000000000000000000000B7
:10D97000000000000000003800440004003C0044A7
:10D980000044003C0000000000000040004000583F
:10D99000006400440044004400640058000000009B
:10D9A000000000000000003000480040004000403F
:10D9B00000480030000000000000000400040034B3
:10D9C000004C004400440044004C003400000000BF
:10D9D000000000000000003800440044007C0040CB
:10D9E000004400380000000000000060004000E03B
:10D9F00000400040004000400040004000000000A7
:10DA00000000000000000034004C004400440044CA
:10DA1000004C003400040044000000400040005866
:10DA2000006400440044004400440044000000003E
:10DA30000000004000000040004000400040004066
:10DA400000400040000000000000004000000040D6
:10DA500000400040004000400040004000400040C6
:10DA6000000000400040004800500060005000509E
:10DA70000048004800000000000000400040004056
:10DA80000040004000400040004000400000000016
:10DA90000000000000000052006D004900490049EC
:10DAA000004900490000000000000000000000588C
:10DAB00000640044004400440044004400000000AE
:10DAC000000000000000003800440044004400440E
:10DAD0000044003800000000000000000000005872
:10DAE00000640044004400440064005800400040CA
:10DAF0000000000000000034004C004400440044DA
:10DB0000004C00340004000400000000000000503D
:10DB10000060004000400040004000400000000065
:10DB20000000000000000030004800400030000805
:10DB3000004800300000000000000040004000E00D
:10DB40000040004000400040004000600000000035
:10DB50000000000000000044004400440044004471
:10DB6000004C0034000000000000000000000044F1
:10DB700000440028002800280028001000000000B1
:10DB80000000000000000049004900550055005504
:10DB900000550022000000000000000000000044CA
:10DBA0000028002800100028002800440000000081
:10DBB0000000000000000044004400280028002865
:10DBC000001000100010001000000000000000789D
:10DBD0000008001000200020004000780000000035
:10DBE0000000001000200020002000200040002045
:10DBF0000020002000200020000000200020002045
:10DC00000020002000200020002000200020002014
:10DC10000000004000200020002000200010002014
:10DC20000020002000200020000000000000000074
:10DC30000074005800000000000000000000000018
:10DC400000000000007000500050005000500050D4
:10DC50000050007000000000000000000000000004
:10DC600000000000000000000000000000000000B4
:10DC70000000000000001000100010001000100054
:10DC8000100000001000000000000000000028004C
:10DC90002800280000000000000000000000000034
:10DCA000000000000000140014003E0014002800D2
:10DCB0007C00280028000000000000001000380050
:10DCC00054005000380014001400540038001000B4
:10DCD0000000000000004400A800A800500014004C
:10DCE0001A002A00240000000000000000002000AC
:10DCF000500050002000E8009800980060000000EC
:10DD00000000000000008000800080000000000093
:10DD100000000000000000000000000000004000C3
:10DD200080008000800080008000800080008000F3
:10DD30000000000000008000400040004000400063
:10DD40004000400040004000000000000000400093
:10DD5000E0004000A0000000000000000000000003
:10DD60000000000000000000000020002000F8007B
:10DD70002000200000000000000000000000000063
:10DD80000000000000000000000000004000400013
:10DD90000000000000000000000000000000000083
:10DDA000C0000000000000000000000000000000B3
:10DDB0000000000000000000000000004000000023
:10DDC0000000000000002000200020004000400073
:10DDD0008000800080000000000000000000600063
:10DDE0009000900090009000900090006000000073
:10DDF00000000000000020006000A00020002000C3
:10DE00002000200020000000000000000000600052
:10DE1000900010001000200040008000F000000082
:10DE20000000000000006000900010006000100082
:10DE300010009000600000000000000000001000D2
:10DE40003000500050009000F8001000100000005A
:10DE5000000000000000700040008000E0001000A2
:10DE60001000900060000000000000000000600052
:10DE700090008000A000D0009000900060000000A2
:10DE8000000000000000F000100020002000200032
:10DE90004000400040000000000000000000600062
:10DEA00090009000600090009000900060000000E2
:10DEB000000000000000600090009000B0005000E2
:10DEC0001000900060000000000000000000000052
:10DED00000004000000000000000000040000000C2
:10DEE00000000000000000000000400000000000F2
:10DEF00000000000400040000000000000000000A2
:10DF000000001000600080006000100000000000B1
:10DF1000000000000000000000000000F000000011
:10DF2000F000000000000000000000000000000001
:10DF30000000800060001000600080000000000011
:10DF40000000000000006000900010002000400071
:10DF500040000000400000000000000000001C0025
:10DF600022005B00A500A500A500A5009E004100C1
:10DF70000000000000002000500050005000500041
:10DF80007000880088000000000000000000F00021
:10DF900088008800F000880088008800F0000000F9
:10DFA0000000000000003800440084008000800071
:10DFB0008400440038000000000000000000E00081
:10DFC000900088008800880088009000E000000031
:10DFD000000000000000F80080008000F8008000D1
:10DFE00080008000F80000000000000000007800C1
:10DFF0004000400070004000400040004000000031
:10E0000000000000000038004400840080009C00F4
:10E010008400440038000000000000000000880078
:10E0200088008800F80088008800880088000000C8
:10E030000000000000008000800080008000800060
:10E040008000800080000000000000000000100040
:10E050001000100010001000900090006000000000
:10E0600000000000000088009000A000E000A00078
:10E070009000900088000000000000000000800078
:10E08000800080008000800080008000F0000000A0
:10E090000000000000008200C600C600AA00AA001E
:10E0A000AA00AA0092000000000000000000840006
:10E0B000C400A400A400940094008C00840000001C
:10E0C000000000000000300048008400840084004C
:10E0D0008400480030000000000000000000F00054
:10E0E000880088008800F000800080008000000028
:10E0F000000000000000300048008400840084001C
:10E100008400580034000400000000000000780083
:10E1100044004400780050004800440042000000E1
:10E1200000000000000070008800800070000800FF
:10E130008800880070000000000000000000F80067
:10E1400020002000200020002000200020000000EF
:10E15000000000000000840084008400840084002B
:10E16000840048003000000000000000000088002B
:10E170008800500050005000500050002000000067
:10E180000000000000009200AA00AA00AA00AA0055
:10E19000AA00AA0044000000000000000000840063
:10E1A000480048003000300048004800840000006B
:10E1B00000000000000088005000500020002000F7
:10E1C0002000200020000000000000000000F800F7
:10E1D000080010002000200040008000F80000002F
:10E1E000000000000000C00080008000800080006F
:10E1F000800080008000800000000000000080009F
:10E20000800040004000400040002000200000004E
:10E21000000000000000C00040004000400040003E
:10E2200040004000400040000000000000004000AE
:10E23000A000A000A00000000000000000000000FE
:10E2400000000000000000000000000000000000CE
:10E25000000000000000F800000000000000800046
:10E26000400000000000000000000000000000006E
:10E2700000000000000000000000E000100070003E
:10E28000900090007000000000000000000080007E
:10E290008000A000D00090009000D000A0000000FE
:10E2A00000000000000000000000600090008000FE
:10E2B00080009000600000000000000000001000DE
:10E2C00010005000B00090009000B000500000001E
:10E2D0000000000000000000000060009000F0005E
:10E2E0008000900060000000000000000000C000FE
:10E2F0008000C0008000800080008000800000005E
:10E30000000000000000000000005000B00090007D
:10E310009000B000500010000000000000008000DD
:10E320008000A000D00090009000900090000000BD
:10E3300000000000000080000000800080008000DD
:10E3400080008000800000000000000000008000CD
:10E35000000080008000800080008000800080003D
:10E36000000000000000800080009000A000C000BD
:10E37000A00090009000000000000000000080005D
:10E38000800080008000800080008000800000000D
:10E3900000000000000000000000A600DA0092006B
:10E3A00092009200920000000000000000000000B7
:10E3B0000000A000D00090009000900090000000AD
:10E3C00000000000000000000000600090009000CD
:10E3D00090009000600000000000000000000000BD
:10E3E0000000A000D00090009000D000A0008000AD
:10E3F000000000000000000000005000B00090008D
:10E400009000B0005000100000000000000000006C
:10E410000000A000C000800080008000800000009C
:10E4200000000000000000000000E000900040003C
:10E43000200090006000000000000000000080004C
:10E440008000C0008000800080008000C0000000CC
:10E45000000000000000000000009000900090000C
:10E460009000B0005000000000000000000000001C
:10E47000000088008800500050005000200000007C
:10E48000000000000000000000009200AA00AA00A6
:10E49000AA00AA00440000000000000000000000E4
:10E4A000000088005000200020005000880000007C
:10E4B0000000000000000000000088005000500034
:10E4C000500020002000200000000000000000009C
:10E4D0000000F0001000200040008000F00000006C
:10E4E000000000000000C0008000800080000000EC
:10E4F000800080008000800000000000000080009C
:10E50000800080008000800080008000800080000B
:10E51000000000000000C00040004000400020005B
:10E5200040004000400040000000000000000000EB
:10E5300000000000E800B000000000000000000043
:10E540000000000000000000E000A000A000A0000B
:10E55000A000A000E00000002DE9F84F002000908E
:10E5600000F066FA00F0E4FA00F060FA4FF0D044F0
:10E57000002020806088009041F2180540F23F168C
:10E5800040F202374FF4E85840F2391940F2371A96
:10E5900041F2B07B40F202204FF4E0614FF4807210
:10E5A000009B49F2203C634540F0A280E523238094
:10E5B0004FF40043638000F047F941F2300161807D
:10E5C00000F04EF900F037F900F030FA1220208008
:10E5D000A4F8029000F02AFA00F020FA202020800F
:10E5E000002060802120208000206080302020805A
:10E5F000062060803120208040F2011060803220AF
:10E60000208003206080352020804FF4837060805C
:10E610003620208040F602306080372020806780DE
:10E620003820208040F20770608039202080072049
:10E6300060803C2020804FF4C06060803D202080BE
:10E6400040F20B206080502020800020608051200C
:10E650002080EF20608052202080002060805320A6
:10E6600020806680602020804FF41C5060806120F4
:10E670002080012060806A2020800020608080202F
:10E680002080002060808120208000206080822007
:10E6900020800020608083202080002060808420F3
:10E6A00020800020608085202080002060809020D5
:10E6B00020801020608092202080002060809320A5
:10E6C000208003206080952020804FF48870608037
:10E6D000972020800020608098202080002060808B
:10E6E0000320208065800720208040F273109AE08C
:10E6F000009B49F2253C634540F0968000F0A4F869
:10E70000658000F0ADF800F096F800F08FF9122067
:10E710002080A4F8029000F089F900F07FF9202011
:10E720002080002060802120208000206080302018
:10E730002080072060803120208067803220208068
:10E7400040F2051060803521218040F20621618071
:10E750003622228040F608026280372323806180BF
:10E760003821218040F20451618039212180072124
:10E7700061803C21218060803D202080628050208B
:10E7800020800020608051202080EF206080522077
:10E7900020800020608053202080668060202080C0
:10E7A0004FF42740608061202080012060806A2033
:10E7B00020800020608080202080002060808120D8
:10E7C00020800020608082202080002060808320C4
:10E7D00020800020608084202080002060808520B0
:10E7E0002080002060809020208010206080922077
:10E7F000208000206080932020800320608095206E
:10E8000020804FF4887060809720208000206080F6
:10E8100098202080002060800320208065800720D1
:10E82000208040F233106080DFF8880300F1080197
:10E830004160BDE8F18F10202080A4F802B01120C3
:10E840002080A4F802A07047002323800123638066
:10E850002380628002222280618003212180704710
:10E86000042121800021618008212180608009200D
:10E870002080002060800A202080002060800C2002
:10E880002080002060800D202080002060800F20EC
:10E8900020800020608010202080002060801120D7
:10E8A00020800020608012202080002060801320C3
:10E8B000208000206080142000F06BB901B4DFF8E4
:10E8C000F402BDF80010018001B0704701B4DFF818
:10E8D000E402BDF80010418001B07047DFF8D412A7
:10E8E00048607047DFF8CC024068704770B5044656
:10E8F00040F23F15DFF8BC6207E02022294620469F
:10E9000000F060F8706880882D1AADB2681C80B283
:10E91000716889888842F0DA70BD10B5044640F20B
:10E920003F11002000F00AF84FF0D0402221018072
:10E930004FF496314480491EFCD110BD4FF0D042B7
:10E94000202313805080212065E02DE9F84388467C
:10E95000914600260446FFF7F1FF4FF0D047DFF85D
:10E96000545205E0641C4146A0B2FFF7E7FF761C55
:10E970006968C888864223D222203880002202E0BB
:10E9800028887880521C8B889A42EBD239F816C0BE
:10E9900080204FF00C0E93FBFEFE4FEACE0E00FAE5
:10E9A0000EF010411CEA000F01D10D2B06D30120FF
:10E9B00090401CEA000FE3D10D2BE1D36888E0E71B
:10E9C000BDE8F18310B5DFF8EC315B68203AD2B2D4
:10E9D000DC8862431B6803EB4202BDE81040B4E7E9
:10E9E000F8B504460D4640F23F16DFF8C87108E05E
:10E9F00015F8012B31462046FFF7E4FF7868808840
:10EA0000361A287830B1B6B2701C80B2796889881D
:10EA10008842EDDAF1BD10805180704713202080CC
:10EA2000A4F8028029202080132060800520B0E017
:10EA30001CB50121782000F0C7F84CF2337000902B
:10EA400002208DF804008DF805000020ADF80600C6
:10EA5000594C00F069F800F045F80C22012100F053
:10EA600043F80C22042100F03FF80C22052100F0AD
:10EA70003BF800F04BF800F044F800F04CF800F0E0
:10EA80003BF800F034F800F04BF80C22072100F0BE
:10EA90002BF800F03BF800F034F800F03CF80C22C2
:10EAA0000B2100F021F80C220C2100F01DF80C22A3
:10EAB0000D2100F019F800F01FF800F018F80120FF
:10EAC00000903E4C00F030F800F00CF84FF48060FD
:10EAD0000090034C00F028F800F01DF813BD000072
:10EAE000001802400C220021204600F0BBB80C2286
:10EAF0000F21204600F0B6B80C220E21204600F06F
:10EB0000B1B80C220921204600F0ACB80C22082133
:10EB1000204600F0A7B80C220A21204600F0A2B837
:10EB20004FF680700090264C00A9204600F062B895
:10EB300000B597B00121012000F04FF805200090AA
:10EB4000002001900920029000200390049005907D
:10EB500006900420079000200890099010200A9049
:10EB600000200B900C900D900E900F904FF4805061
:10EB70001090002011901290139000A814901590FE
:10EB800007A800F081F80121042000F0D8F817B0A0
:10EB900000BD01B481B000200090019809494843AC
:10EBA00001E00098401E009000980028F9D102B0C2
:10EBB0007047000064000020000C02400014024076
:10EBC00000100240A0860100084A0029116814BF05
:10EBD000084321EA000010607047054A00291168C7
:10EBE00014BF084321EA000010607047303802402B
:10EBF00038380240F0B50022012393400C681C40D5
:10EC00009C422BD154000325A540ED4306682E40BD
:10EC1000066006680F79A7403E4306600E79012E14
:10EC200018BF022E11D186682E40866086684F7903
:10EC3000A7403E438660466826EA03034360436874
:10EC40008E799640B6B233434360C3682B40C360AD
:10EC5000C368CD7905FA04F42343C360521C102A1B
:10EC6000CAD3F0BD10B5CB1000EB830001F0070153
:10EC70008900036A0F248C40A3430362036A02FAEB
:10EC800001F11943016210BD10B54FF020414268F7
:10EC900083681A43C3681A4303691A4343691A43D2
:10ECA00083691A43C3691A43036A1A43436A1A43BE
:10ECB000836A1A43C36A1A43036B1A43036841F811
:10ECC00023208268082A06D1026851F8223043F0D6
:10ECD000400341F82230416B0A684B6842EA031254
:10ECE0008B6842EA0322CB6842EA03420B6942EA9C
:10ECF00003524B6942EA0362896911430268920038
:10ED0000A2F1C04251600168134AC36AB3F5804F53
:10ED100010D1806B0368446843EA0413846843EAB3
:10ED20000423046943EA0453446943EA04638069A1
:10ED3000184301E06FF0704042F8210010BD4FF021
:10ED40002042002952F8201012BF41F00101034B6C
:10ED5000194042F820107047040100A0FEFF0F0088
:10ED600080B500F005F80020BDE80240FFF7D5BDF2
:10ED700094484FF6FF7181800021C180018141815B
:10ED80008181C18101210170002141708170C170B8
:10ED90000182704730B587B00446002500E06D1C45
:10EDA00010F8011B0029FAD11B2D28BF1A2520229B
:10EDB0001B2100A800F00EF9002000AA06E0C5F112
:10EDC0001B0100EB5101035D8B54401CA842F6D39C
:10EDD0000020FFF7A2FD7C48FFF780FDFFF782FDD2
:10EDE00004464FF6FF70FFF769FD1F20FFF76EFD29
:10EDF0000020FFF77BFD00A9E088FFF7F1FDE08828
:10EE00004004000CFFF772FD0020FFF75FFD6F4824
:10EE1000FFF764FD07B030BD30B58BB004461F204E
:10EE2000FFF754FDFFF75EFD0546002003E000AA52
:10EE300020238354401C4FF4A071AA8891FBF2F266
:10EE4000C0B2531E9842F2DB00A81018002100F84F
:10EE5000011C00A9E888C0F1F00080B2FFF7C0FDF6
:10EE60002146E888C0F1F00080B2FFF7B9FD00202C
:10EE7000FFF72CFD0BB030BD2DE9F0410446FFF744
:10EE800031FD504DA978002957D16978012907D162
:10EE9000E9896981A989298100216970E97029823C
:10EEA000E9883426DFF828814FF4A072838892FB2A
:10EEB000F3F3994201DA0A2C38D16B892F899F42EA
:10EEC00018D395F800E0BEF1000F07D17F1C2F8109
:10EED000BFB2092F0ED100272F810BE000272F7022
:10EEE00008E0B5F806C020270CF80E700CF10107F9
:10EEF000EF80491C06FB038EB0F804C092FBFCFCBB
:10EF00006145EED3A888AEF832000020E88000F01A
:10EF100017F86889401C688180B2092804D1002054
:10EF200068810120288128700A2C06D0E888698928
:10EF300006FB01814454401CE8802046BDE8F08176
:10EF40002DE9F8430027FFF7CDFC04461D4E30891C
:10EF500071893425DFF87880082911D281420FD3D6
:10EF600005FB0180408EFFF7A9FC708905FB00813D
:10EF7000C01CE288504380B2BDE8F443FFF730BDC7
:10EF8000814238BF0931A1F1080086B2F019092188
:10EF900090FBF1F101EBC101401A80B205FB008941
:10EFA000B9F83200FFF78AFC4946F81CE288504362
:10EFB00080B2FFF715FD7F1C092FE7DBBDE8F18369
:10EFC00000000000A8020020740000207C00002047
:10EFD0008400002062F30F2262F31F4200B500BFDD
:10EFE000130096469446103928BFA0E80C50FAD872
:10EFF0005FEA417C28BF0CC048BF40F8042BC9071A
:10F0000028BF20F8022B48BF00F8012B00BD10B428
:10F0100050F8041B81B102681218001D50F8043B1F
:10F02000DC0744BFA9F10104E31852F8044B43F88C
:10F03000044B091FF9D1EBE710BC704780B5FFF70F
:10F040008BFAFFF78DFE0FF2D000FFF7A3FE2D48DD
:10F050004FF6FF7101800FF2D80000F08BF80FF22D
:10F06000F800FFF7D9FE002000F096F8012000F02C
:10F0700093F8022000F090F8032000F08DF8224869
:10F0800000684FF47A71B0FBF1F0B0F1807F2AD2C2
:10F090001E490002000A401E48601D48F02202700E
:10F0A0000020886007200860002000F092F801200E
:10F0B00000F08FF8022000F08CF8032000F089F8AF
:10F0C000C82000F011F8002000F083F8012000F0C3
:10F0D00080F8022000F07DF8032000F07AF8C820C4
:10F0E00000F002F8E0E7FEE70A4908600868002837
:10F0F000FCD170470748016811B10168491E0160E1
:10F1000070470000AC0200205000002010E000E03A
:10F1100023ED00E0BC0200202042696E617279207C
:10F12000696D6167652074656D706C617465200040
:10F130003E205379737469636B2074656D706C61E4
:10F140007465206578616D706C652073746172748C
:10F1500065642E0A00000000202020202042696EF5
:10F1600061727920696D6167652074656D706C618D
:10F17000746520000EB400B582B003A9009100AB05
:10F1800002460121034878440A3000F045F806BCE5
:10F190005DF810FB6D0300001CB5044601210FF261
:10F1A000680050F82400FFF70FFD0FF2540030F80C
:10F1B0001400009001208DF8040000F016F88DF87E
:10F1C000050000A9DFF8340050F82400FFF712FD15
:10F1D00013BDDFF8281051F820104A690FF2200300
:10F1E00033F8100050404861704700208DF8060049
:10F1F00001208DF807000220704700005400002015
:10F2000040000001000280004000000040000000BB
:10F2100000010000040000002DE9F04784B08146A1
:10F22000884614461E460DF1000A04E014F8011B3E
:10F230004046C8478046207810B904B0BDE8F08742
:10F240002528F3D1641C14F8015B252D6FD0582DAF
:10F2500051D0632D0ED0642D18BF692D10D06F2DA5
:10F2600049D0702D4CD0732D50D0752D18BF782DEE
:10F2700041D0E0E73068011D31600168C9B2D7E7CD
:10F280003068011D31600768002F03D52D214046ED
:10F29000C84780466F2D08BF082105D045F02000E3
:10F2A000782814BF0A2110210B203A46642D02D180
:10F2B000002F48BF5242431E1846B2FBF1FC01FB2F
:10F2C0001C223032D2B23A2A24BFA5F1510E724428
:10F2D00003F80A2062460AB10128ECDAC0F10B05F6
:10F2E00000A947184046002DA4D017F8011BC847B5
:10F2F0006D1EFAD19EE73068011D31600768C9E7CD
:10F300003068011D316007687825C3E73068011D4A
:10F3100031600568284600F01DF807464046002F7A
:10F3200088D015F8011BC8477F1EFAD182E7252136
:10F330007EE750F8041B61B150F8042BD30744BF9B
:10F34000A9F101039A18002342F8043B091FFAD1DE
:10F35000EFE7704700F10103810704D010F8011BAB
:10F3600089B18107FAD10268B2F10131914311F0FC
:10F37000803F04BF50F8042FF6E710F8011B11B1CD
:10F3800010F8011BFBE7C01A7047000082B030483C
:10F39000016841F0010101600021816001682D4A8E
:10F3A000114001602C494160016821F48021016015
:10F3B0000021C16001910091016841F48031016038
:10F3C000016801F4003100910199491C01910099F3
:10F3D00019B90199B1F5A06FF2D10168490C01F09A
:10F3E00001010091009901292CD1016C41F080515B
:10F3F00001641A490A6842F480420A6081688160A7
:10F40000816841F400418160816841F4A0518160CC
:10F4100013494160016841F0807101600168890110
:10F42000FCD5104940F205620A60816889088900AC
:10F430008160816841F002018160816801F00C0106
:10F440000829FAD108480949016002B07047000054
:10F4500000380240FFFFF6FE10300024007000402C
:10F4600019544007003C024008ED00E000C00008CD
:10F4700010B5084979441C31074C7C441A34A14228
:10F4800006D0081D0A68511888470146A142F8D1E4
:10F4900010BD00BF080000002800000097FEFFFF1D
:10F4A0003C020000840000200000000063FBFFFF1E
:10F4B000840000000C02000000000020000000009A
:10F4C00000F009F8002801D0FFF7D2FF0020FFF775
:10F4D000B5FD00F002F80120704700F001B800000F
:10F4E0000746384600F002F8FBE7000080B5C0464A
:10F4F000C046024A11001820ABBEFBE726000200FE
:10F5000038B504460D46284600F006F8A84218BF54
:10F510000024204632BD00000149FFF7ADBC00BF0A
:10F52000000000207047FEE7FEE7FEE7FEE77047B9
:10F5300070477047FFF7DEBD01488047014800472C
:10F540008DF3000849F50008C046C046C046C046D5
:10F55000FFF7B6FFFFF7E6BFFFF7E5BFFFF7E4BF32
:10F56000FFF7E3BFFFF7E2BFFFF7E1BFFFF7E0BF41
:10F57000FFF7DFBFFFF7DEBFFFF7FEBFFFF7FEBFFE
:10F58000FFF7FEBFFFF7FEBFFFF7FEBFFFF7FEBFAF
:10F59000FFF7FEBFFFF7FEBFFFF7FEBFFFF7FEBF9F
:10F5A000FFF7FEBFFFF7FEBFFFF7FEBFFFF7FEBF8F
:10F5B000FFF7FEBFFFF7FEBFFFF7FEBFFFF7FEBF7F
:10F5C000FFF7FEBFFFF7FEBFFFF7FEBFFFF7FEBF6F
:10F5D000FFF7FEBFFFF7FEBFFFF7FEBFFFF7FEBF5F
:10F5E000FFF7FEBFFFF7FEBFFFF7FEBFFFF7FEBF4F
:10F5F000FFF7FEBFFFF7FEBFFFF7FEBFFFF7FEBF3F
:10F60000FFF7FEBFFFF7FEBFFFF7FEBFFFF7FEBF2E
:10F61000FFF7FEBFFFF7FEBFFFF7FEBFFFF7FEBF1E
:10F62000FFF7FEBFFFF7FEBFFFF7FEBFFFF7FEBF0E
:10F63000FFF7FEBFFFF7FEBFFFF7FEBFFFF7FEBFFE
:10F64000FFF7FEBFFFF7FEBFFFF7FEBFFFF7FEBFEE
:10F65000FFF7FEBFFFF7FEBFFFF7FEBFFFF7FEBFDE
:10F66000FFF7FEBFFFF7FEBFFFF7FEBFFFF7FEBFCE
:10F67000FFF7FEBFFFF7FEBFFFF7FEBFFFF7FEBFBE
:10F68000FFF7FEBFFFF7FEBFFFF7FEBFFFF7FEBFAE
:10F69000FFF7FEBFFFF7FEBFFFF7FEBFFFF7FEBF9E
:10F6A000FFF7FEBFFFF7FEBFFFF7FEBFFFF7FEBF8E
:10F6B000FFF7FEBFFFF7FEBFFFF7FEBFFFF7FEBF7E
:10F6C0000204010158020020A80200205802002074
:10F6D00058020020580200203D0000202400002095
:10F6E000000000000000000000000000000000001A
:10F6F000000000000000000000000000000000000A
:10F7000000000000000000000102030406070809D1
:10F71000007A030A0018024000180240002002404C
:10F72000000802400000FFFF0000000088C1000840
:10F730001000180058D300080C000C0058DC00081A
:04F7400008000C00B1
:040000050800F549B1
:00000001FF
