:020000040800F2
:020000020000FC
:20C000002820002001CC0008EDCB0008EFCB0008F1CB0008F3CB0008F5CB0008000000000F
:20C02000000000000000000000000000F7CB0008F9CB000800000000FBCB0008FDCB0008CC
:20C0400041CC000845CC000849CC00084DCC000851CC000855CC000859CC00085DCC0008C8
:20C0600061CC000865CC000869CC00086DCC000871CC000875CC000879CC00087DCC0008A8
:20C0800081CC000885CC000889CC00088DCC000891CC000895CC000899CC00089DCC000888
:20C0A000A1CC0008A5CC0008A9CC0008ADCC0008B1CC0008B5CC0008B9CC0008BDCC000868
:20C0C000C1CC0008C5CC0008C9CC0008CDCC0008D1CC0008D5CC0008D9CC0008DDCC000848
:20C0E000E1CC0008E5CC0008E9CC0008EDCC0008F1CC0008F5CC0008F9CC0008FDCC000828
:20C1000001CD000805CD000809CD00080DCD000811CD000815CD000819CD00081DCD0008FF
:20C1200021CD000825CD000829CD00082DCD000831CD000835CD000839CD00083DCD0008DF
:20C1400041CD000845CD000849CD00084DCD000851CD000855CD000859CD00085DCD0008BF
:20C1600061CD000865CD000869CD00086DCD000871CD000875CD000879CD00087DCD00089F
:20C1800081CD000885CD0008F0B5044681B02078DFF8A454C00713D5A86800F00C00042881
:20C1A00007D0A86800F00C00082839D16868400236D52868800303D56068012840F02A818E
:20C1C0002078800712D5A86810F00C0F07D0A86800F00C00082853D16868400250D4286831
:20C1E000800703D5E068012840F014812078000740F181806069DFF8447400286BD00120FD
:20C20000C7F8800E00F051FA00F16406686F800771D400F04AFAB042F8D3032001B0F0BD26
:20C220000020A87041F2883700F03FFA3E182868800306D500F039FAB042F8D3032001B0B3
:20C24000F0BD6068A870606801280CD100F02DFA3E1828688003B3D400F027FAB042F8D3AE
:20C26000032001B0F0BD00F020FA3E1828688003A6D500F01AFAB042F8D3032001B0F0BD0D
:20C28000E068DFF8B873B8B10120386000F00DFA00F164062868800706D400F006FAB0420D
:20C2A000F8D3032001B0F0BD2868216920F0F80040EAC100286099E7386000F0F6F900F1B5
:20C2C00064062868800791D500F0EFF9B042F8D3032001B0F0BDC7F8800E00F0E6F900F154
:20C2E0006406686F800706D500F0DFF9B042F8D3032001B0F0BD207840073DD5A06848B1A3
:20C30000286C40F080502864DFF83403016841F480710160002085F8700041F2883700F010
:20C32000C4F93E18286F800706D500F0BEF9B042F8D3032001B0F0BDA06885F87000A0680F
:20C3400001280CD100F0B1F93E18286F800713D400F0ABF9B042F8D3032001B0F0BD00F020
:20C36000A4F93E18286F800706D500F09EF9B042F8D3032001B0F0BDA06900284DD0A968AD
:20C3800001F00C01082945D0DFF8B072022831D10020386600F089F900F164062868800198
:20C3A00006D500F082F9B042F8D3032001B0F0BD206A616A40EA8110A16A891EC903090C56
:20C3C00040EA0140E1690843E16A40EA016040F0005068600120386600F067F900F16406D5
:20C3E0002868800119D400F060F9B042F8D3032001B0F0BD0020386600F057F900F164065F
:20C400002868800109D500F050F9B042F8D3032001B0F0BD012001B0F0BD002001B0F0BDB9
:20C42000F0B5DFF8144281B00546D4F800040E4600F00F00B0424FD284F80064D4F80004C8
:20C4400000F00F00B04240F094802878C00740F193806868012802D12168890303E02168AF
:20C46000022804D1890105D4012001B0F0BD890740F17F80A168890840EA8100A06000F0E6
:20C4800014F900F598576868883701280BD1A06800F00C0004286FD000F007F9B842F6D3F5
:20C4A000032001B0F0BD02280BD1A06800F00C00082861D000F0F9F8B842F6D3032001B018
:20C4C000F0BDA06810F00C0F56D000F0EEF8B842F7D3032001B0F0BD2878C00741D56868FE
:20C4E000012802D12168890303E02168022804D1890104D4012001B0F0BD890739D5A16838
:20C50000890840EA8100A06000F0CFF800F598576868883701280BD1A06800F00C00042880
:20C520001FD000F0C2F8B842F6D3032001B0F0BD02280BD1A06800F00C00082811D000F013
:20C54000B4F8B842F6D3032001B0F0BDA06810F00C0F06D000F0A9F8B842F7D3032001B0C9
:20C56000F0BD84F80064D4F8000400F00F00B04202D0012001B0F0BD2878800705D5A06813
:20C58000A96820F0F0000843A0602878400705D5A068E96820F4E0500843A06028780007EF
:20C5A00006D5A068296920F4604040EAC100A06000F01EF8A2680FF2A0032249C2F303127E
:20C5C000D25CD040086008684FF47A71B0FBF1F0401EB0F1807F08D21B494860F02081F81E
:20C5E000130D0020886007200860002001B0F0BD1648416801F00C01042903D0082903D0FD
:20C60000134870471348704701680268C2F3805201F03F01002A14BF0E4A0D4AB2FBF1F130
:20C6200002680068C0F30140C2F38812401C51434000B1FBF0F0704700380240000047426F
:20C64000007000400000002010E000E0043802400024F40040787D01000000000102030464
:20C66000010203040607080900B5164881B0016841F400710160016841F480610160016895
:20C6800041F4807101604FF47A5000F02CF8032000F01CF800F003F8002001B000BD70479B
:20C6A00009480168491C0160704707480068704701B405480168009A511802688A42FCD362
:20C6C00001B07047003C0240240000200E490A684FF6FF031A4000F0070042EA00200B4A2E
:20C6E000104308607047401EB0F1807F01D30120704707494860F02081F8130D0020886075
:20C7000007200860002070470CED00E00000FA0510E000E02DE9F04F00220023724DDFF8DB
:20C72000CC814FF00F0901240E68944004EA060EA64540F0CC804E68022E18BF122E16D199
:20C7400002F007064FEA860AD7080E6900EB870706FA0AF6D7F820B009FA0AFA2BEA0A0A73
:20C76000C7F820A0D7F820A046EA0A063E6203269E400768F64337400760076891F804A0A2
:20C780000AF0030A0AFA03FA4AEA070707604F68012F18BF022F03D0112F18BF122F15D1E8
:20C7A0008768374087608768D1F80CA00AFA03FA4AEA07078760476827EA04044460446886
:20C7C0004F68C7F3001797403C434460C4683440C460C4688E689E403443C4604C68E400E0
:20C7E00075D5434C424E246844F480443460960802F00304A40058F8267009FA04FA27EA81
:20C800000A0748F826703B4FB84208BF00272CD0394FB84208BF012727D0384FB84208BF13
:20C82000022722D0364FB84208BF03271DD0354FB84208BF042718D0334FB84208BF0527B9
:20C8400013D0324FB84208BF06270ED0304FB84208BF072709D02F4FB84208BF082704D01F
:20C860002D4FB8420CBF09270A2758F826A007FA04F444EA0A0448F826406FEA0E042E6824
:20C8800026402E606E6826406E604E68F60303D52E684EEA06062E604E68B60303D56E688E
:20C8A0004EEA06066E60AE682640AE60EE683440EC604C68E40203D5AC684EEA0404AC60F4
:20C8C0004C68A40203D5EC684EEA0404EC60521C9B1C102AFFF427AFBDE8F08F0AB10183BB
:20C8E0007047418370470000003C0140083801404438024000000240000402400008024078
:20C90000000C0240001002400014024000180240001C0240002002400024024000B591B0AB
:20C92000FFF7A2FE01200590069002200B904FF480000C9019200D904FF4A8700E90022008
:20C940000F900720109005A8FFF71EFC0F200090052102200190002002904FF4A0500390A4
:20C960004FF48050049000A8FFF75AFD254826490160002000F04AF8012000F047F802201A
:20C9800000F044F8032000F041F8002000F069F8012000F071F8022000F06EF8032000F0A9
:20C9A0006BF86420FFF784FE002000F065F8012000F057F8022000F05FF8032000F05CF87B
:20C9C0006420FFF775FE002000F056F8012000F053F8022000F045F8032000F04DF8642085
:20C9E000FFF766FE002000F047F8012000F044F8022000F041F8032000F033F86420FFF73E
:20CA000057FEC2E708ED00E000C0000870B586B00446DFF87C10002818BF012C04D1086802
:20CA200040F04000086003E0086840F04000086000A90FF26400DFF85C6030F81450009531
:20CA40000120019002900220039056F82400FFF761FE56F8240001222946FFF73FFF06B028
:20CA600070BD0FF23401DFF82C3031F8101053F820000022FFF732BF0FF21C01DFF814302A
:20CA800031F8101053F820000122FFF727BF00003038024014000020400080000004001031
:20CAA0000E480F4BD0F8801041F47001C0F880100C490A6842F001020A6000228A600A689C
:20CAC0001A400A60084A4A600A6822F480220A600022CA60054901607047000008ED00E07B
:20CAE000FFFFF6FE0038024010300024000C000810B450F8041B81B102681218001D50F8FC
:20CB0000043BDC0744BFA9F10104E31852F8044B43F8044B091FF9D1EBE710BC704750F8A4
:20CB2000041B61B150F8042BD30744BFA9F101039A18002342F8043B091FFAD1EFE7704704
:20CB400010B5074979441831064C7C44163404E00A68081D511888470146A142F8D110BDEB
:20CB60000800000028000000B7FFFFFF04000000240000200000000079FFFFFF24000000EF
:20CB80000802000000000020000000004EF68851CEF20001086840F4700008604FF0007062
:20CBA000E1EE100A7047000000F00BF8002801D0FFF7C6FF0020C046C046FFF7AFFE00F06F
:20CBC00002F80120704700F001B800000746384600F002F8FBE7000080B5C046C046024AB6
:20CBE00011001820ABBEFBE7260002007047FEE7FEE7FEE7FEE7704770477047FFF750BD06
:20CC00000148804701480047A1CA000811CC0008C046C046FFF7BAFFFFF7C6FFFFF7E6BF0B
:20CC2000FFF7E5BFFFF7E4BFFFF7E3BFFFF7E2BFFFF7E1BFFFF7E0BFFFF7DFBFFFF7DEBF40
:20CC4000FFF7FEBFFFF7FEBFFFF7FEBFFFF7FEBFFFF7FEBFFFF7FEBFFFF7FEBFFFF7FEBF3C
:20CC6000FFF7FEBFFFF7FEBFFFF7FEBFFFF7FEBFFFF7FEBFFFF7FEBFFFF7FEBFFFF7FEBF1C
:20CC8000FFF7FEBFFFF7FEBFFFF7FEBFFFF7FEBFFFF7FEBFFFF7FEBFFFF7FEBFFFF7FEBFFC
:20CCA000FFF7FEBFFFF7FEBFFFF7FEBFFFF7FEBFFFF7FEBFFFF7FEBFFFF7FEBFFFF7FEBFDC
:20CCC000FFF7FEBFFFF7FEBFFFF7FEBFFFF7FEBFFFF7FEBFFFF7FEBFFFF7FEBFFFF7FEBFBC
:20CCE000FFF7FEBFFFF7FEBFFFF7FEBFFFF7FEBFFFF7FEBFFFF7FEBFFFF7FEBFFFF7FEBF9C
:20CD0000FFF7FEBFFFF7FEBFFFF7FEBFFFF7FEBFFFF7FEBFFFF7FEBFFFF7FEBFFFF7FEBF7B
:20CD2000FFF7FEBFFFF7FEBFFFF7FEBFFFF7FEBFFFF7FEBFFFF7FEBFFFF7FEBFFFF7FEBF5B
:20CD4000FFF7FEBFFFF7FEBFFFF7FEBFFFF7FEBFFFF7FEBFFFF7FEBFFFF7FEBFFFF7FEBF3B
:20CD6000FFF7FEBFFFF7FEBFFFF7FEBFFFF7FEBFFFF7FEBFFFF7FEBFFFF7FEBFFFF7FEBF1B
:20CD8000FFF7FEBFFFF7FEBF0024F400000000000000000001020304060708090018024093
:0CCDA00000180240001802400018024079
